:020000040800F2
:100000009807002099010008052000082D1F00080E
:1000100000000000000000000000000000000000E0
:10002000000000000000000000000000092000089F
:100030000000000000000000072000080B2000085E
:10004000AB010008AB010008AB010008AB010008E0
:10005000AB010008AB010008AB010008AB010008D0
:10006000AB010008AB010008AB010008AB010008C0
:10007000AB010008AB010008AB010008AB010008B0
:10008000AB010008AB010008AB0100080000000054
:10009000AB010008AB010008AB010008AB01000890
:1000A000AB010008AB010008AB010008AB01000880
:1000B000AB010008AB010008AB010008AB01000870
:1000C00000F002F800F059F812A030C808382418DF
:1000D0002D18AC4201D100F050F80FCCA246AB462F
:1000E0000CA730CF2D1B083F3F197C427F1E544484
:1000F0002D090426F441641EAC4201D300F03DF802
:100100000126334200D0FB1A3343984754465D46DC
:10011000DFE70000942E0000B42E0000103A02D356
:1001200078C878C1FAD8520701D330C830C101D598
:1001300004680C6070470000704700000023002432
:1001400000250026103A01D378C1FBD8520700D30E
:1001500030C100D50B60704710B5642902D100F0A2
:10016000FBF810BD752902D100F0F6F810BD002093
:1001700010BD1FB51FBD10B510BD00F09AFB114694
:10018000FFF7F7FF02F05AFB00F0B2FB03B4FFF7F2
:10019000F2FF03BC00F0B8FB074880470748004760
:1001A000FEE7FEE7FEE7FEE7FEE7FEE70448054957
:1001B000054A064B7047000013200008C1000008E4
:1001C0009801002098070020980300209803002041
:1001D000FEB5044610460D46184373D0A6468C461D
:1001E0000020A41A01469D4167D3664600270124DA
:1001F0003D46B61A9D4102D313463A462124654630
:1002000076462F04360C3E432D0CB61A9D4104D37E
:10021000150C1B042B4312041034654676462F063A
:10022000360A3E432D0AB61A9D4104D3150E1B0211
:100230002B4312020834654676462F0736093E43A3
:100240002D09B61A9D4104D3150F1B012B43120132
:10025000241D65467646AF07B6083E43AD08B61A7C
:100260009D4104D3950F9B002B439200A41C65462F
:100270007646EF0776083E436D08B61A9D411AD3BD
:1002800092185B41641C16E00018764665464941A9
:10029000B71A9D410191009009D36046B11A984167
:1002A0008E468446009801990025401C6941DD076F
:1002B00052082A435B08641EE6D57246634603B0C3
:1002C000F0BDFFE72046284307D00020C043014689
:1002D000C046C04622462B46F1E700200146F7E71C
:1002E0000FB41CB5074B06AA7B44694600900598DD
:1002F00000F0B3FA0020694600F0C2FA1CBC08BC4A
:1003000004B018479505000070B50446856900687B
:10031000C10601D5302600E02026C00707D070BDF9
:1003200062683046A1689047206A401C20626D1EBA
:10033000F6D570BD70B5044685690078C00707D151
:1003400070BD6268A16820209047206A401C20622E
:100350006D1EF6D570BD0000F7B500257529106833
:10036000009914A611D0C046C046002802DA4042C7
:1003700011A608E0009909688A0701D50FA602E0D6
:10038000490704D50EA6012501E0C046C046009FDE
:100390000024243704E000F078FA30313955641C29
:1003A0000028F8D12B4632462146009800F0F7F994
:1003B000FEBD0000000000002D0000002B0000002A
:1003C00020000000F3B50446002081B020622046E2
:1003D000E1688847002872D0252802D06268A168A9
:1003E0009AE0E16820460026884705460020E06143
:1003F0000746A0612A2D0AD0284602F030FD0028C9
:1004000027D0B8000019303D0090856119E00298AE
:10041000BA00121902C8916102902046E16888472B
:10042000012F054617D1E06900281FDA20208643F6
:100430001CE000980A21806948430099401930382F
:1004400088612046E1688847054602F008FD0028DB
:10045000EFD1012F0AD02E2D08D12046E168884720
:100460000546202006437F1C022FC3DBA06900281D
:1004700003DA4042A06101200643F00701D01020BA
:1004800086436C2D0AD0682D08D04C2D3CD06A2DA7
:1004900038D0742D38D07A2D36D016E0E1682F464A
:1004A00020468847B84205460AD16C2F2AD0012041
:1004B0008002E168064320468847054605E02FE0B4
:1004C0006C2F1DD0FF2001300643002D28D0284678
:1004D0004138192803D80120C002064320352046A0
:1004E00026602946029A1646FFF736FE002810D0ED
:1004F00001280BD0F61DF008C0000830029066E716
:100500004020E1E78020D4E70020D2E7361D0296A4
:100510005DE762682846A1689047206A401C55E75D
:10052000206AFEBD30B5441C03E00178401C002960
:100530000DD08107F9D10B4BDD0104C8D11A9143CD
:100540002940FAD0001B0A0603D0C01E30BD001B94
:1005500030BD0A0401D0801E30BD0902FCD0401E0F
:1005600030BD00000101010101E004C0091F0429A0
:10057000FBD28B0701D50280801CC90700D0027016
:10058000704700290BD0C30702D00270401C491EDF
:10059000022904D3830702D50280801C891EE3E769
:1005A0000022EEE70022DFE7704770477047000047
:1005B000F0B5FF252D04C609C209FF2704462E40C9
:1005C0000137CB093E4348402A402B400746002ACA
:1005D0006BD0002B69D0AA4267D0AB4265D000280F
:1005E00000DA32460125ED0529432C430902200299
:1005F000090AD21A4B0C7F24E31A434C000A7C44AC
:10060000E35C7D242404121914145B00A2188842B0
:1006100001D3521C00E0400049420C465C432411C7
:100620005C43DB016415E318040A5C43C502200D3A
:100630000C4644436419250A5D432303EC0C0D4624
:10064000654300030019EB184C42A34201D35B1829
:10065000401CD4052018002B07D05B00C91804D318
:10066000401C002901D1400840003F2189048A42F2
:1006700009D3002A08DC1106090F04D00321490719
:100680004018C00FC007F0BD0122410012068918B2
:100690007F2252069142F6D205214907C84201D570
:1006A0009010F0BDFF20C005F0BD002F00DA3246EB
:1006B0001648AA4207D2AB4205D21902090E17D03A
:1006C000F80FC007F0BDFF2563002D06AB42F9D837
:1006D0004900A942F6D8AB4201D1A942F2D0A942C1
:1006E00001D1002101E061004908D0050843F0BDB7
:1006F0001102090EFBD0FF200243D005F0BD0A46CF
:100700000146104654E700001A2900000000C07F8F
:100710000102C21504D00123DB071943002A0ADBBA
:100720009E239A1A02D40846D0407047FF22410007
:100730001206914201D900207047C017C04370478C
:100740001F22030C02D10F2200041CD0030E01D182
:100750000002083A030F01D10001121F830F01D1DB
:100760008000921E002801DB4000521ED205511865
:10077000021251181922904004D3491C002801D1BB
:100780004908490008467047C10FC90700D04042D8
:10079000012292071143D3E701218907D0E7FFB572
:1007A00004460D4681B0243000902168880604D5A7
:1007B0001022E0699143216000E00120A84201DDA0
:1007C000471B00E000270498A1697A191018081A3D
:1007D000A0612078C00602D42046FFF795FD0026D0
:1007E00008E003986268A168805D9047206A401C19
:1007F000761C206204988642F3DB2078C0060AD576
:100800002046FFF781FD06E06268A168302090472E
:10081000206A401C206238467F1E0028F4DC07E076
:1008200000986268A168405D9047206A401C206281
:1008300028466D1E0028F3DC2046FFF77BFD20785C
:10084000000602D5022005B0F0BD0120FBE7000044
:1008500001694A1C02610878704700B58FB00291A7
:1008600000210591054901937944039111460490B3
:100870006846FFF7A7FD0FB000BD0000E5FFFFFFD2
:100880000A681070521C0A60704701468008081AF6
:1008900002091018020A1018020C1018C008820071
:1008A00012185200891A01E0401C0A390A29FBD2A9
:1008B0007047754600F024F8AE4605006946534679
:1008C000C008C000854618B020B5FFF76FFC60BCBB
:1008D000B64600260027C0C5C0C5C0C5C0C5C0C536
:1008E000C0C5C0C5C0C5403D490849008D467047D8
:1008F00010B50446C046C0462046FFF747FC10BD71
:10090000004870472800002001491820ABBEFEE7D0
:10091000260002007047000070B582B004460068EF
:10092000816803220A40012A02D10168C9074AD11D
:100930008168284A114208D0606D10210143616529
:10094000A16D01200143A1653BE0816801220A43BA
:10095000826066480068664902F086F90190019855
:10096000002817D00198401E01900198002811D04E
:100970000198401E0190019800280BD00198401E5C
:1009800001900198002805D00198401E019001981F
:100990000028E7D100F0C2FB05462068016800206E
:1009A000C9070ED1064602E00068C0070ED100F06C
:1009B000B5FB411B20680B29F6D30168C907F3D1A9
:1009C000BAE702B070BD002002B070BD304602B080
:1009D00070BDC04617000080F0B583B05022825C25
:1009E000012A02D1022003B0F0BD0446503402684F
:1009F00093685B0719D40F684B683A483840012662
:100A00003104019171040091B104374DAB4215D10D
:100A1000936A834393620F42A44D23D10098074207
:100A200027D1019807422BD12EE0416D20220A43A5
:100A3000426501200021217003B0F0BD936A034399
:100A400093620F42994D24D10098074203D0B0051C
:100A50002968014329600198074215D031062868AA
:100A6000084310E0F0052968814329600098074297
:100A7000D7D0B0052968814329600198074203D087
:100A8000310628688843286000200021217003B0C7
:100A9000F0BDF00529680143296014480068144935
:100AA00002F0E2F80A214143029102980028CBD0DB
:100AB0000298401E029002980028C5D00298401E5D
:100AC000029002980028BFD00298401E029002981F
:100AD0000028B9D00298401E029002980028E7D161
:100AE000B2E7C046FFFF0700011000002000002011
:100AF00040420F000068006C70470000F0B583B002
:100B0000012400283AD006465036416D002903D012
:100B1000416DC9060AD52BE000213170816505467B
:100B200000F0CCF82846416DC90621D401688A68D6
:100B300052071DD481225200436D93439A1C426593
:100B40008A6803252A40594C012A02D10A68D20733
:100B50002AD142680126F707554BBA4205D0B6079D
:100B6000B24202D0AD07AA420BD10D4610350DE0BE
:100B700000213170416D10220A434265204603B0C6
:100B8000F0BD0D691D400D614A4B25462E681E4083
:100B90002E602B6813432B60CA6818239A43CA60DF
:100BA0008268CB681343CB6003462033012255068D
:100BB0002668AE432660456B6D0626682E43266088
:100BC0008C68E40003D414078D6825438D6002927D
:100BD000CC68394D2540CD600469A41E654265414D
:100BE000AC00C66826431D786C033443066B26436D
:100BF0001C7B640034438669C769B6032643FC0343
:100C00003443CE682643CE60476A0E460C36FF2436
:100C10000194C234A74216D15A78012A029F1BD0F0
:100C20000B69C26B012A29D1019A920093430B618F
:100C3000044640341CCC134323430A691A430A6117
:100C40000B693B431EE03468826A22433A433260B8
:100C50005A78012A029FE3D1002D07D0426D20234C
:100C600013434365064658363B4600E03B04326872
:100C70001A4332600B69C26B012AD5D0DA0702D061
:100C80000B69BB430B614A6907239A434A61826B34
:100C90004B6913434B6100248465416D3943022243
:100CA00091434165204603B0F0BDC046082701408E
:100CB000FFFFFF3FFFFFC3FF1902FEFF10B586B025
:100CC00000210591049103910291019100680E4A5F
:100CD000904201D006B010BD012042020B4B9C682F
:100CE00014439C601A6802431A601A68024000921A
:100CF000039103200290019005200007009901A9AB
:100D000000F040F906B010BD002401402C10024054
:100D1000F0B581B00D4604460146503140690828BF
:100D200002D10091082705E02068C068C00767D19C
:100D300000910C2700F0F2F9064621680868384255
:100D40001ED001204202636D13436365CA68120519
:100D5000920F67D1224620321278002A62D10A68A7
:100D600012075FD58A68520753D4224654324B6823
:100D70000C25AB434B60FF2502351368AB434FE0B6
:100D8000681C39D0002D1BD10868384221D0086872
:100D90003842D6D1086838421BD008683842D0D1D2
:100DA0000868384215D008683842CAD10868384205
:100DB0000FD008683842E7D0C3E708683842C0D18E
:100DC00000F0ACF9801B2168A842F6D908683842C7
:100DD000F3D1002000990870606D04210143616522
:100DE000032001B0F0BD08683842AAD10868384233
:100DF000A7D108683842A4D108683842F3D0A0E7E8
:100E000000200870606D202101436165012001B060
:100E1000F0BD626D20231343636522465832A36DF3
:100E200003431360A2690020002A01D001B0F0BD85
:100E30000C220A6001B0F0BD70B501688A68022119
:100E4000520713D45022825C012A0FD00546503538
:100E500001212970C269012A0AD004460E46FFF713
:100E60005BFD024631462046002A01D0084670BD8F
:100E7000416D094A0A4001210902511841650021CA
:100E8000816500681C220260297082680423134374
:100E90008360084670BDC046FEF0FFFFF0B581B02C
:100EA00004465020205C012802D1022001B0F0BD90
:100EB00026465036012737702068816849070ED4CE
:100EC000826803210A40012A02D10268D20721D197
:100ED000FF200230616D8143543400203BE0816883
:100EE000490706D58168890703D4816810220A431F
:100EF000826000F013F90546206881684907DFD554
:100F000000F00CF9411B20680B29F6D381684907D2
:100F1000F3D519E0826805231340012B14D18268B0
:100F2000022313438360016000F0F8F8054620684F
:100F30008068C007CCD000F0F1F8411B20680B2975
:100F4000F6D38168C907F3D0606D10210143616554
:100F5000A16D58343846002232703943216001B007
:100F6000F0BD0000B0B5044600F0D8F80546601C9E
:100F700002D08A480078241800F0D0F8401BA04224
:100F8000FAD3B0BDF0B58AB007900B68002B00D142
:100F9000B3E00E465A480799814201D0062000E08E
:100FA00005200B210907079A52180A21CA4101920C
:100FB000052A00D3019007982030009000221546A2
:100FC0001746029619460BE021434E4801607F1CEC
:100FD00031680846F840121DAD1C002800D18CE095
:100FE00001231846B8400140F1D0059306920391C1
:100FF000324603263146A9400495CD4351680C463C
:101000003440631E012B0895099110D807998B680D
:101010002B40D668049DAE401E438E60099AD306CD
:10102000DB0FBB404E6886431E434E6006E0032C38
:10103000049D03D13446029E069A1DE00799C868B4
:10104000089A1040029EB368AB400343CB60022C69
:10105000069A11D11C2010400F218140FB089B00F3
:10106000009AD4588C43316981402143D150069A6B
:101070007068032409900440AC4007990868089BF5
:1010800018402043086009988003800F059B9ED07C
:1010900049490868184308600C2010400F2181401E
:1010A00003233C469C43184BE3588B4301998140F2
:1010B000194315482150134881687068C30202D54E
:1010C000039C214301E0039CA1430E4B9960D96826
:1010D000830201D5214300E0A1430A4BD96059683E
:1010E000830301D5214300E0A143064B59601968F1
:1010F000C00300D568E7A14367E70AB0F0BDC0466A
:10110000001C00500004014008000140002A02D0E9
:101110001822815070472822815070470548006886
:101120007047C0461D48007802490A6810180860D8
:101130007047C0469401002010B50848016840225D
:101140000A4302600024204600F00AF8002801D07B
:10115000012010BD00F026F8204610BD00200240FE
:1011600070B504467D20C0000C4E317801F07CFD46
:1011700001460B48006801F077FD00F077FD01257E
:10118000032C08D8002806D10025E84321462A462A
:1011900000F014F87460284670BDC04618000020A6
:1011A000200000200448016801221143016011075A
:1011B00042680A434260704734100240002805D458
:1011C0000322034693430A4A9A1803E00C22024082
:1011D000064BD2188007C00E8901C9B28140FF2397
:1011E00083401068984308431060704714ED00E096
:1011F00000E400E0F0B589B0066801252F02EA029C
:1012000011462031874B0E427CD005920890290769
:10121000143B18680840049002D11868084318600D
:1012200001930291804C2068384211D120683843E4
:101230002060FFF773FF06462068384208D1FFF7A9
:101240006DFF801B6428F7D90325284609B0F0BD3F
:101250000326340573484C38069001682140089BEA
:1012600058680246039422400096340491420AD101
:1012700002462240A242069E0DD19A68039B1A4064
:10128000914205D107E001462140A142069E02D1CC
:1012900031688903D9D4634B59680794214021D020
:1012A000079A1040814203D00898007880060AD43B
:1012B00008988068079A1040814213D00898006807
:1012C000059908420ED05868E9045A680A435A60E2
:1012D0005A688A435A600146079A914359603842D6
:1012E00000D08CE00898066805990E42079C59D1F9
:1012F000B1066DD40499002904D1019C2168029A99
:1013000091432160F1070DD1B10713D4710719D4AE
:10131000310720D43E4227D171062ED40025310654
:1013200093D535E0196803229143C2680A431A60D5
:10133000B107EBD519680C22914302690A431A6080
:101340007107E5D5032189021A688A43416911436F
:1013500019603107DED5032109031A688A438169C0
:10136000114319603E42D7D0032109041A688A4309
:10137000C169114319607106D0D5012189061A6827
:101380008A43416A114319600025310600D45CE7A5
:1013900003218A0419689143006A084318602846AB
:1013A00009B0F0BD826811462140A1420BD10398DB
:1013B000024003231B05069D2C689C43194B08988B
:1013C00014432C60079C5A680A435A60B10691D5B1
:1013D000426811462140A1420AD1039802400323EA
:1013E0001B05069D2C689C430E4B089814432C60EB
:1013F0005A680A435A600499002983D17DE7FFF7B0
:101400008DFE0546884C074B5868800500D569E776
:10141000FFF784FE401BA042F5D9009D284609B085
:10142000F0BDC0464C10024000700040F0B583B0E3
:10143000002846D00E4602907A48006801210191AA
:101440000840864216D9774908680125A8433043E9
:101450000860754CFFF762FE074672480068284036
:10146000B04207D0FFF75AFEC01BA042F5D90320B7
:1014700003B0F0BD029D28688107794C05D521682D
:10148000F0229143AA680A432260C0071CD1654834
:10149000006801273840864224D262490868B84370
:1014A0000860614CFFF73AFE05465E480068C007D9
:1014B00018D0FFF733FE401BA042F6D9032003B03B
:1014C000F0BD012003B0F0BD6A6821460C390968FF
:1014D000012A34D0032A2DD0022A72D1890301981F
:1014E0002BD52FE0029B186841075D4C06D50721DC
:1014F000090222688A43D96811432160000707D591
:101500000720C002216881431869C0000843206099
:1015100021680807820F6E487A4412795200974476
:101520000154735B38042146083909680904490FDE
:10153000884069E08901019804D403B0F0BD4907EF
:101540000198FAD52168032001908143114321605D
:10155000FFF7E4FD07466868334D03282BD00228C7
:101560001ED001280AD120680C21014004298ED008
:10157000FFF7D4FDC01BA842F5D909E02068000799
:10158000800F00D183E7FFF7C9FDC01BA842F5D942
:10159000019803B0F0BDFFF7C1FDC01BA842F7D80A
:1015A00020680C2101400829F5D170E7FFF7B6FD4E
:1015B000C01BA842ECD820680C2101400C29F5D1B1
:1015C00065E789050198B8D5BCE720460C38006866
:1015D000C00612D5414817E08A02120F3D4B9A5CB3
:1015E0000902890F491C2368DB0309D420460C3803
:1015F0000068C00603D5394802E0374804E03648A1
:101600004243104601F030FB21680906090F074AE2
:10161000515CC8401149086005480068FFF7A0FD0B
:1016200003B0F0BD00200240881300005C2F0008CA
:101630001C00002009480068094909684905490F4C
:10164000084A515CC840704704480068044909686A
:101650008904490F034A515CC840704720000020AC
:101660000C1002406C2F000810B5844BD968080795
:10167000820F17487A441279520097440108070DE7
:101680000120000459680904490F884010BD1868FA
:10169000C00614D5114810BD8A02120F0D4CA25C71
:1016A0000902890F491CDC68E40303D41868C006EA
:1016B00007D50A484243104601F0D6FA10BD064845
:1016C00010BD05484243104601F0CEFA10BDC04699
:1016D00000127A00742F00080024F40000093D0075
:1016E000F0B589B0002855D0644EF1680C220A404C
:1016F0000692012105910904F76804910F400790B3
:101700000078C00710D00698082806D006980C2844
:1017100000D0D5E0002F00D1D2E03068800303D59F
:1017200007984068002850D0079B1878800734D469
:101730001878C0064CD407980078000766D407993B
:101740000878400700D59BE00878800600D51EE1A8
:101750000798846A002C1AD006980C2800D067E1FC
:10176000012C32D0F068049A0240079BD96A8A4261
:101770002BD10F21890401401A6B914225D10321FD
:1017800089050840596B8842059800D057E200202F
:1017900009B0F0BD012009B0F0BDD868810604D5BC
:1017A000316820221143316090430699042906D004
:1017B00006990C2900D0A9E0002F00D0A6E03168DE
:1017C00000283AD10422114037D0059809B0F0BD65
:1017D000012044020699002900D1ADE03168079A42
:1017E000D2690002002A00D101E101433160FFF714
:1017F00095FC05463068204200D008E1FFF78EFCDA
:10180000401B0228F6D9032009B0F0BD306D0799BE
:101810004969002900D1D9E0012108433065FFF76B
:101820007DFC0546306D800789D4FFF777FC401BAF
:101830000228F7D9032009B0F0BD1F210902726800
:101840008A43196909021143716031680922914381
:1018500001433160F1680807820FFA485200C04620
:101860007A4492885200974403002401DA013B0134
:1018700070680004410F04988840D0E100100240D5
:1018800001221107B06B0840029002D1B06B0843EF
:10189000B063019103921402F14F3868C00523D45C
:1018A000386820433860FFF739FC05463868204225
:1018B0001AD1FFF733FC411B03206429F6D9BEE19E
:1018C000306807994968049A914209D005221204A8
:1018D000914200D0CDE0059989040843306030681A
:1018E000049908433060D3E007988168306D039B0A
:1018F0005F02002900D12BE105221202914200D1A2
:1019000020E1A14200D037E120433AE131680028CC
:1019100000D1D3E00922914301433160FFF7FEFB80
:1019200005463068400700D502E1FFF7F7FB411B91
:1019300003200229F5D982E13168214204D00799B8
:10194000C969002900D17AE1072040037168814309
:10195000079B586A01437160FF21090672688A4338
:10196000196A090689187160400B04998140F06872
:101970000006000FB74A105CC140B7480160B74885
:101980000068FFF7EDFB002800D058E1D3E6B0680F
:1019900007998969002900D1B4E001210843B060AA
:1019A000706B084370634803AF490A6802430A60DA
:1019B000FFF7B4FB0546B068800700D5C8E6FFF71F
:1019C000ADFB411B03200229F5D938E101218843F1
:1019D0003065FFF7A3FB0546306D800700D4AEE607
:1019E000FFF79CFB411B03200229F5D927E1814326
:1019F0003160FFF793FB05463068204200D19AE63C
:101A0000FFF78CFB411B03200229F5D917E10720C2
:101A1000400371688143079A506A08437060FF2051
:101A2000000671688143106A00064018706082E603
:101A30000120010632688A4332604706FFF76EFBD9
:101A40000546022C0AD13068384200D1C4E0FFF7C5
:101A500065FB411B03200229F5D9F0E030683842CC
:101A600000D194E6FFF75AFB411B03200229F5D968
:101A7000E5E0049A90433060306810400890089880
:101A800005988004326882433260002900D193E0D7
:101A900005984404FFF742FB05463068204200D019
:101AA00042E6FFF73BFB401B6428F6D9032009B050
:101AB000F0BD3068C0067DD56548B0E001208143A7
:101AC0003160FFF72BFB054630684007079B00D4C9
:101AD0002EE6FFF723FB411B03200229F4D9AEE0D9
:101AE0008A02120F584B9A5C0902890F491CF3684D
:101AF000049C234200D08EE03068C00600D489E008
:101B0000534888E001218843B060480356490A6879
:101B100082430A60FFF702FB0546B068800700D4E5
:101B200016E6FFF7FBFA411B03200229F5D986E0F0
:101B30001F20000271688143079B18690002084357
:101B40007060F5E5990208433065306D204318E078
:101B5000A04330659802316D81433165FFF7DEFAAD
:101B60000546404C306D38421AD0FFF7D7FA411B7A
:101B70000320A142F6D962E0A04330659902306D9E
:101B800088433065FFF7CAFA0546364C306D384257
:101B900006D1FFF7C3FA411B0320A142F6D94EE05C
:101BA00002980028079900D0CEE5B06B019A9043C7
:101BB000B063C9E5254832E005984404FFF7AEFA62
:101BC00005463068204200D1AEE5FFF7A7FA411B79
:101BD00003206429F5D932E0FD200004F168814337
:101BE000079B2C330DCB084310431843F060294862
:101BF000401C316801433160FFF790FA04463068B9
:101C0000384200D0C3E5FFF789FA011B03200229FF
:101C1000F5D914E00D484243104601F025F8F1686B
:101C20000906090F0B4A515CC8400B4908600B4874
:101C30000068FFF795FA0028079B00D178E509B006
:101C4000F0BDC04600127A00742F00080024F40092
:101C500000093D005C2F0008200000201C0000202F
:101C6000007000408813000020000140401E010E5B
:101C700001D0012070470749074A506007480368B0
:101C80000B4003218907591801600020906007214B
:101C900011607047FFFFFF0010E000E020ED00E062
:101CA000B0B500281DD00446C06F002805D17820AB
:101CB00000212154204600F02BF82420E067206802
:101CC00001680125A9430160606A002802D020460E
:101CD00000F0A0F9204600F06FFA002803D0284653
:101CE000B0BD0120B0BD0920C00221684A6882430E
:101CF0004A6088682A22904388600868012202436B
:101D00000A60204600F0F0F905462846B0BD000004
:101D100010B586B0002105910491039102910191C3
:101D200000681B4A904214D01A4A90422DD10120DB
:101D30004204194BDC681443DC601A6802431A60E1
:101D40001A680240009200980520000704230C2224
:101D500011E00120C004104AD3680343D360106827
:101D60000423184310601068184000900098032066
:101D700082020A4806230593032304930391022158
:101D80000291019201A9FFF7FDF806B010BDC0460F
:101D9000004C0040004400402C100240000800505D
:101DA000F0B585B00446C06F202810D1012000296D
:101DB0000BD0002A09D001200503A668AE4209D144
:101DC000CE0707D02669002E04D105B0F0BD022051
:101DD00005B0F0BD0193029127465037204684306C
:101DE0000021039101602120E0671646FFF796F974
:101DF00004907E803E80A068A84202D1206900281D
:101E00005ED0029D019E039A2168788800285ED0EA
:101E1000701C454B2ED0002E49D00392C869000695
:101E200008D4FFF77BF90499401AB04266D82168BC
:101E30000868F3E7002D03D0287888626D1C07E05E
:101E4000039A1088384B18408862921C0392002530
:101E50007888401E788078880028DFD137E01088A5
:101E600018408862921C00257888401E7880788807
:101E700000282CD0C869000608D4C869000605D41B
:101E8000C869000602D4C8690006F3D5002DE6D063
:101E9000287888626D1CE7E7108818408862921CD9
:101EA00000257888401E7880788800280FD0C8697F
:101EB000000621D5002DEFD0287888626D1CF0E750
:101EC0000025029A019E216878880028A0D1CA695D
:101ED0000020520613D4002E0ED0721C13D1CA69F2
:101EE00052060CD4CA69520609D4CA69520606D4ED
:101EF000CA695206F3D502E0FFF710F9032020214A
:101F0000E16705B0F0BD0546FFF708F90499401AEE
:101F1000B042F3D820680168C0694006F4D528466D
:101F20002021E16705B0F0BDFF010000FEE7B0B57C
:101F300004460698A0820798A075059D2561049D1A
:101F4000A5810EC40C3C002801D0382108E03321C3
:101F5000204600F025FB3221204600F021FB2821FD
:101F6000204600F01DFB0121204600F019FB0C214A
:101F7000204600F015FB0621204600F011FBB0BD05
:101F800080B5044B595C51188039C9B200F008FB88
:101F900080BDC0467D2F000810B50446807D002816
:101FA00001D0382108E03321204600F0F9FA32212F
:101FB000204600F0F5FA2821204600F0F1FA012130
:101FC000204600F0EDFA0C21204600F0E9FA062147
:101FD000204600F0E5FA10BDF0B581B0054608785E
:101FE00000280DD00C4600273E46E15D284600F053
:101FF0007EFB761CF7B22046FEF794FAB842F4D87E
:1020000001B0F0BDFEE77047704780B5FFF78AF872
:1020100080BD7047B0B5416A0A070CD4CA0714D115
:102020008A071CD44A0724D4CA062CD48A0634D47E
:102030004A063CD44CE00122D20303685C68944316
:10204000426B22435A60CA07EAD001225204036855
:102050005C689443826A22435A608A07E2D501226F
:10206000120403685C689443C26A22435A604A07B8
:10207000DAD50122920403685C689443026B224320
:102080005A60CA06D2D50122120303689C689443A1
:10209000826B22439A608A06CAD5012252030368E2
:1020A0009C689443C26B22439A604A0610D5012271
:1020B0001305026854689C43056C2C4354609D4290
:1020C00006D103235B0554689C43436C2343536050
:1020D000090607D50121C904026853688B43806C47
:1020E00018435060B0BD0000F0B583B0044606460A
:1020F00078360025F560FFF711F80346206801687F
:10210000090721D502952B48009001256905002279
:1021100020461F4600F066F9002812D0EFF3108029
:1021200085F3108821680A6880239A430A6080F347
:102130001088032020227C21029D6250357003B05C
:10214000F0BD20683B46029D0068400726D519482F
:1021500000900127B9050022204600F043F900282D
:102160001CD0EFF3108087F3108809214901226801
:1021700013688B43136080F31088EFF3108087F3AC
:10218000108821688A68BA438A6080F31088032027
:10219000202280216250357003B0F0BD2020E0671E
:1021A000B060256664212A4628466250357003B027
:1021B000F0BDC046FFFFFF01F0B581B004460168E5
:1021C0000868764A0240A06823690343606918439F
:1021D0001043E26910430860032630034B688343D1
:1021E000E06818434860A5696D4B994202D0206AA7
:1021F000284300E028460B252D028F68AF43074394
:102200008F606848814214DD0027674881421FD0F3
:10221000664881421CD06648814243D16648C06C02
:102220008007000F66A52F580125E803994213D1B6
:102230003DE06048814205D0994233D15E48C06C90
:10224000000A01E05C48C06C0C2505405B4847591A
:102250000125E80399422AD0824212D1082F00D9E1
:1022600096E0C0467F443F797F00BF44043C4691DE
:10227000529191917300FFF7DDF9002800D069E0D9
:1022800085E0082F00D983E07F443F797F00BF4479
:10229000042F3A7F457F7F7F7200FFF7CBF900283C
:1022A00069D174E010270125E8039942D4D1082FA1
:1022B0006ED8C0467F443F797F00BF4404690969F6
:1022C0000F6969693500FFF7B5F900282CD15EE088
:1022D00039480068C00626D53E4825E0FFF7C4F916
:1022E000002821D153E0FFF7AFF9002832D14EE0AA
:1022F000FFF7AAF900283ED149E02F480068C00640
:1023000027D5344826E02C480068C00632D531482D
:1023100031E0FFF7A9F900281CD138E0FFF7A4F954
:10232000002828D133E02A4862685643B0422FD3B0
:10233000110388422CD8010E560800020023801990
:102340005941FDF745FF25494118254A91421CD3C3
:102350001EE01F48400061684A08101800F084FC25
:102360000246103A1C498A4212D201400007400F2F
:1023700008430AE0164861684A08101800F074FC27
:1023800001461039144A914202D22168C8600025E2
:102390000020A066E066284601B0F0BDF369FFEFBB
:1023A00000480040FF4B0040004C004000500040FF
:1023B000003801400044004000100240842F000813
:1023C00001000000040000000200000008000000FE
:1023D0000024F40000093D00F0FF000000FDFFFFB5
:1023E00000FD0F00F0B585B01F4615460E46036888
:1023F000D9693140891B4A424A410021954222D184
:102400000A9C002C22D00391611C24D1D96931404F
:10241000891B4A424A41954231D1D9693140891BD1
:102420004A424A4195422AD1D9693140891B4A42E0
:102430004A41954223D1D9693140891B4A424A41D8
:102440009542E3D01BE0084605B0F0BDFEF766FEFE
:10245000032005B0F0BD402E049001D0802E14D191
:10246000FEF75CFEC01BA0420CD80498006801680F
:10247000C0693040801B414241418D42F0D00398F9
:1024800005B0F0BD032005B0F0BD7830019001200B
:102490000090C002029006E0C8693040801B4142B3
:1024A00041418D42EBD1FEF739FEC11B0320A14211
:1024B0003ED8049909680A685207EDD5CA6912071F
:1024C00038D4CA69029B1A42E6D0029A0A62EFF334
:1024D0001082012181F3108809235B01049C246888
:1024E00025689D43256082F31088EFF3108281F305
:1024F0001088049B1B689C688C439C60049B82F33F
:1025000010881A6E012A0BD1EFF3108281F3108824
:1025100019680B681024A3430B60049B82F3108896
:102520002021019CA16000221A669A662270E16057
:1025300005B0F0BD08250D62EFF31081009880F31F
:10254000108809225201049B1B681C6894431C607C
:1025500081F31088EFF3108180F31088049A1268D9
:10256000936883439360049B81F31088196E01295B
:102570000CD1EFF31081012282F310881A681368DE
:102580001024A3431360049B81F310882021019A37
:1025900091600021196699661170D56005B0F0BD93
:1025A00070B50D460446818980680022FEF7AEFDB5
:1025B000A07D00283CD001222A4003CC0988006875
:1025C000083CFEF7A3FD03CC49884068AA07D20F58
:1025D000083CFEF79BFD03CC898880686A07D20F10
:1025E000083CFEF793FD03CCC988C0682A07D20FC8
:1025F000083CFEF78BFD03CC09890069EA06D20F7F
:10260000083CFEF783FD03CC49894069AA06D20F36
:10261000083CFEF77BFD03CC898980696A06D20FEE
:10262000083CFEF773FD03CCC989C069EA0949E09B
:1026300003CC09880068EA06D20F083CFEF766FD65
:1026400003CC49884068AA06D20F083CFEF75EFD1D
:1026500003CC898880686A06D20F083CFEF756FDD5
:1026600003CCC988C068EA09083CFEF74FFDA18A7F
:10267000206901263246FEF749FD3046FEF772FC1E
:10268000A18A20690022FEF741FD2E4003CC098873
:10269000083C00683246FEF739FD03CC49884068A3
:1026A000AA07D20F083CFEF731FD03CC8988806869
:1026B0006A07D20F083CFEF729FD03CCC988C06821
:1026C0002A07D20F083CFEF721FD264614361034A7
:1026D0003188206801252A46FEF718FD2846FEF7B6
:1026E00041FC318820680022FEF710FD70BD70B5F6
:1026F0000D4604468189806801263246FEF706FDB4
:10270000A07D00283CD02E4003CC098800683246CA
:10271000083CFEF7FBFC03CC49884068AA07D20FAF
:10272000083CFEF7F3FC03CC898880686A07D20F67
:10273000083CFEF7EBFC03CCC988C0682A07D20F1F
:10274000083CFEF7E3FC03CC09890069EA06D20FD6
:10275000083CFEF7DBFC03CC49894069AA06D20F8E
:10276000083CFEF7D3FC03CC898980696A06D20F46
:10277000083CFEF7CBFC03CCC989C069EA0948E0F4
:1027800003CC09880068EA06D20F083CFEF7BEFCBD
:1027900003CC49884068AA06D20F083CFEF7B6FC75
:1027A00003CC898880686A06D20F083CFEF7AEFC2D
:1027B00003CCC988C068EA09083CFEF7A7FCA18AD7
:1027C00020693246FEF7A2FC3046FEF7CBFBA18A19
:1027D00020690022FEF79AFC2E4003CC0988083CB1
:1027E00000683246FEF792FC03CC49884068AA078D
:1027F000D20F083CFEF78AFC03CC898880686A0700
:10280000D20F083CFEF782FC03CCC988C0682A07B7
:10281000D20F083CFEF77AFC264614361034318875
:10282000206801252A46FEF771FC2846FEF79AFB30
:10283000318820680022FEF769FC70BDA8B0FEF761
:102840007BFC1AA80A903821FDF7ACFE00271997E7
:1028500018971797169715970BA82821FDF7A2FE32
:1028600003200690C002DA490A68824339204501F4
:102870005019E030086024970524600323902297C4
:102880000126219610201A900A98FEF729FF0028A9
:1028900003D0EFF3108072B6FEE70A940596169700
:1028A0000F20159017971897199715A83946FEF716
:1028B000BDFD002803D0EFF3108072B6FEE70F973E
:1028C00002240B940BA8FEF795FC002803D0EFF32D
:1028D000108072B6FEE71E971D971C971B971A97DC
:1028E000BC4801680422099211430160016811404B
:1028F0000B910B99016822468026314301600168E3
:10290000314004960B910B990168059C21430160AD
:10291000016821400B910B99016811430160006827
:10292000079210400B900B980A9800070A902946CE
:102930003A46FEF7EBFB43200101A7483A46FEF773
:10294000E5FBA64831463A46FEF7E0FB1C972120FE
:1029500000041B9060031A901AAEA0483146FEF79F
:1029600011FB1D971C971B941A95049D0A983146DC
:10297000FEF708FB1D971C971B947D20C000089054
:1029800048301A9094483146FEF7FCFA1D971C9780
:102990001B941A9591483146FEF7F4FA2C21904881
:1029A0004754C7638F4906228263069A92070784B9
:1029B000FF23C233436287620763446386C00760B4
:1029C000446009990C380246143292C21B971A9738
:1029D000FEF794F8002803D0EFF3108072B6FEE7FC
:1029E0001A94814861301B907D481AA9FDF7F4FFC5
:1029F000002803D0EFF3108072B6FEE77B481A90F0
:102A000077481AA9FDF7E8FF002803D0EFF31080FC
:102A100072B6FEE776480C21764A076247624B237E
:102A2000DB018CC0076047608160C76007610C38BC
:102A3000FFF736F9002803D0EFF3108072B6FEE7F7
:102A40006420FEF78FFA600200906448049701A9A1
:102A5000A1C1694A114608311AAC20460A9BFFF70A
:102A600066FA664F3D46103528460ECC0EC00ECC99
:102A70000EC02846FFF790FA61A10A952846FFF795
:102A8000ABFA574C089E10E038780BA90870012269
:102A90000A235748FFF784F9FEF740FBF8607D7082
:102AA0003220FEF75FFA089E4D4C2046FEF7C4F92F
:102AB0000A212046FEF72CF9002803D12046FEF714
:102AC00019F878600A212046FEF722F90028099DAE
:102AD00003D12046FEF70EF8B8602046FEF7DEF977
:102AE000B868FDF759FE4C49FDF762FD4B4900F00F
:102AF000BDF9FDF70DFE044649488442274600D340
:102B0000474F3E484068C82844D342498842079D01
:102B100040D344498842069D3CD343498842059DA1
:102B200000D3049D4149884234D834484078012874
:102B300030D03220FEF716FA30490878002802D04B
:102B40000020087014E03348C830844203D90120C3
:102B500008703DA50DE000210A9D28460A46FFF7B2
:102B60000FFA284633A1FFF737FA3046FEF7FAF995
:102B70002F4D00210A9E30460A46FFF701FA3046E3
:102B80002946FFF729FA01250A2319481B492A4635
:102B9000FFF706F91AAE304630A13A46FDF7A0FB22
:102BA000012100220A9F3846FFF7EAF938463146EC
:102BB000FFF712FAFEF7B2FA104FF968401A6428CC
:102BC00000D26CE70848844200D85DE702205CE749
:102BD000007000402C10024000040050000800501B
:102BE000B0000020002401409F0F000002000004FC
:102BF0000C010020004C0040000000208800002054
:102C0000456E67696E653A204F4646202020202099
:102C1000000000001405000000401C4500F07F4546
:102C2000FF0F0000C4090000740E0000730E0000C6
:102C3000942F000853746570206F6E204272616B90
:102C40006521202000000000456E67696E653A200E
:102C50004F4E202020202020000000004272616B97
:102C6000653A25346C75000043088B421AD3002264
:102C700003098B4279D3030A8B425ED3030B8B4249
:102C800042D3030C8B4227D30902FF2212BA030C52
:102C90008B4202D31212090203D0030B8B4233D3AF
:102CA0001AE0D3E0411A8041401C704703460B43B1
:102CB00071D443088B42F5D3002203098B4254D3CD
:102CC000030A8B4239D3030B8B421DD3030C8B4277
:102CD00002D394466EE0090AC30B8B4201D3CB03A7
:102CE000C01A5241830B8B4201D38B03C01A52414D
:102CF000430B8B4201D34B03C01A5241030B8B424F
:102D000001D30B03C01A5241C30A8B4201D3CB0239
:102D1000C01A5241830A8B4201D38B02C01A52411E
:102D2000430A8B4201D34B02C01A5241030A8B4221
:102D300001D30B02C01A5241CDD2C3098B4201D339
:102D4000CB01C01A524183098B4201D38B01C01AB7
:102D5000524143098B4201D34B01C01A524103092E
:102D60008B4201D30B01C01A5241C3088B4201D3DD
:102D7000CB00C01A524183088B4201D38B00C01A8A
:102D8000524143088B4201D34B00C01A5241411AB1
:102D9000524110007047CA0F00D04942031000D3BF
:102DA0004042534000229C4603098B422DD3030A24
:102DB0008B4212D38901FC2212BA030A8B420CD334
:102DC000890192118B4208D3890192118B4204D35D
:102DD000890137D0921100E08909C3098B4201D3E0
:102DE000CB01C01A524183098B4201D38B01C01A17
:102DF000524143098B4201D34B01C01A524103098E
:102E00008B4201D30B01C01A5241C3088B4201D33C
:102E1000CB00C01A524183088B4201D38B00C01AE9
:102E20005241D9D243088B4201D34B00C01A5241C0
:102E3000411A00D201465241104663465B1000D34E
:102E40004042704763465B1000D3404201B5002109
:102E5000004201D0C9430846C046C04602BD3038D2
:102E60000A2801D2012070470020704770B5420047
:102E700064414B005C41120E39D01B0E38D0FF2A42
:102E80003CD0FF2B3AD0D2187F3A40024902400A88
:102E9000490A4518ED0106004E43000A090A484355
:102EA0000104731A4019190C4318990F04D05B08D8
:102EB000012149075B1A521CD80904D3401CF503B1
:102EC00001D19D0607D0FF2A08D2D50506D0E40718
:102ED0002043401970BD0125A843F4E7002A01DC16
:102EE000E00770BD2402FF202043C00570BD1B0E0B
:102EF000FF2A03D0FF2B01D0E00770BDFF26360666
:102F00004500B54206D84D00B54203D8D218FF2A75
:102F100000D0E7E7004870BD0000C07F8182838455
:102F200085868788898B8C8D8E8F919293959697C5
:102F3000999A9C9D9FA0A2A3A5A7A8AAACAEB0B247
:102F4000B3B5B7B9BCBEC0C2C5C7C9CCCED1D4D742
:102F5000D9DCDFE2E6E9ECF0F3F7FAFE000000006E
:102F60000000000001020304060708090000000039
:102F700001020304030406080C101820300040105E
:102F800050000000000000000400000002000000EB
:102F900008000000456E67696E653A204F4646207E
:102FA0002020202020000000C82F00080000002062
:102FB000280000001C010008F02F00082800002055
:102FC000700700003C010008200010000004000110
:102FD00000040050000400500004005000000050A5
:102FE00001000000040000000000200000000000BC
:04000005080000C12E
:00000001FF
